:020000040800F2
:1030000038680020253200082D3200082F320008D1
:103010003132000833320008353200080000000069
:10302000000000000000000000000000373200082F
:103030003932000800000000B332000805AE000875
:103040003F3200083F3200083F32000891A50008D7
:103050003F3200083F3200083F3200083F3200088C
:103060003F320008856400083F3200083F32000804
:103070003F3200083F3200083F3200083F3200086C
:103080003F3200083F3200083F3200083F3200085C
:103090003F3200083F3200083F3200083F3200084C
:1030A0003F3200083F3200083F3200083F3200083C
:1030B0003F3200088DAE00080DAF00083F32000817
:1030C0003F3200083F3200083F3200083F3200081C
:1030D0003F32000841B400083F320008EDB4000858
:1030E00029640008C9A400083F320008000000005D
:1030F00000000000000000000000000000000000D0
:1031000000000000000000003F3200083F320008CD
:103110003F3200083F3200083F3200083F320008CB
:103120003F3200083F3200083F3200083F320008BB
:103130003F3200083F3200083F3200083F320008AB
:103140003F3200083F3200083F3200083F3200089B
:1031500000F002F800F056F80AA090E8000C824453
:103160008344AAF10107DA4501D100F04BF8AFF230
:10317000090EBAE80F0013F0010F18BFFB1A43F055
:1031800001031847D4A90000F4A90000103A24BF95
:1031900078C878C1FAD8520724BF30C830C144BFBC
:1031A00004680C60704700000023002400250026FE
:1031B000103A28BF78C1FBD8520728BF30C148BF9A
:1031C0000B60704766290AF05683642900F0168167
:1031D000782900F04F81732900F0F18700207047B3
:1031E0001FB501F0DBF804000020002109F004FB0A
:1031F000401C60600020002109F0E8FAE0601FBD7B
:1032000010B510BD01F0D8FB1146FFF7E9FF09F03A
:1032100035FA01F049FE03B4FFF7F2FF03BC08F0F2
:103220001DFD00000948804709480047FEE7FEE70A
:10323000FEE7FEE7FEE7FEE7FEE7FEE7FEE7FEE766
:1032400004480549054A064B7047000021AE0008B6
:1032500051310008384800203868002038580020D4
:1032600038580020EFF3108072B6704780F3108852
:103270007047204C204D25604FF0000484F30988EE
:103280001E4C4FF0010525701D4C4FF080552560F8
:1032900062B6FEE730B41A4C4FF08055256030BC62
:1032A000704730B4164C4FF08055256030BC7047E5
:1032B00000BF72B6EFF3098028B1203880E8F00F24
:1032C00010490968086000B50F4880475DF804EBB5
:1032D0000E480F490A7802700A480E490A680260CF
:1032E000106890E8F00F203080F309884EF0040E4B
:1032F00062B6704720ED00E00000FFFF9E00002056
:1033000004ED00E0A40000200D93000893000020CD
:1033100094000020AC000020704700000FB4044966
:1033200010B503AA029800F04FFF10BC5DF814FB23
:10333000600000200FB41CB5074B06AA7B44694609
:103340000090059800F011FF0020694600F020FF72
:103350001CBC5DF814FB0000510E000070B5044663
:1033600085690068C10601D5302600E02026C00727
:1033700007D070BDD4E9012130469047206A401C37
:1033800020626D1EF6D570BD70B504468569007863
:10339000C00707D170BDD4E9012120209047206AE1
:1033A000401C20626D1EF6D570BD70B50C460546FA
:1033B000012A05D02878800600D5EA69002302E0BA
:1033C000012305E05B1C934202D2E05C0028F9D1A6
:1033D000A869E618C01AA861286A18442862284615
:1033E000FFF7BCFF04E0D5E9012114F8010B904779
:1033F000B442F8D32846FFF7C7FF70BD2DE9F0416E
:103400000646002410687529314616A510D0AFF382
:103410000080002802DA404213A507E031688A07DD
:1034200001D512A502E0490704D511A5012401E048
:10343000AFF3008000210A2206F1240709E0B0FB67
:10344000F2FCB0FBF2F302FB1C003030785418465B
:10345000491C0028F3D123462A463046BDE8F041F6
:1034600000F017BC000000002D0000002B00000041
:103470002000000070B504460D4621461068AFF3E9
:1034800000802188090502D50F4A7A4402E00E4ADD
:103490007A440E32002104F1240305E000F00F0607
:1034A0000009965D5E54491C0028F7D1207800235E
:1034B000000704D5702D02D009B102231132204635
:1034C000BDE8704000F0E5BBF0A500002DE9F05F1D
:1034D000894604464FF0000ADFF824B1FB44C0F8E7
:1034E00020A02046E168884700287DD0252806D006
:1034F000D4E901219047206A401C2062F1E70025B1
:103500005F462046E16888472028064607DB312EC3
:1035100005D2B81910F8200C08B10543F1E7A80747
:1035200001D525F00405C4F81CA00027C4F818A094
:103530002A2E09D0304608F08AFB38B304EB8708FE
:10354000303EC8F8186019E059F8041B204604EB17
:1035500087029161E1688847012F064618D1E0692A
:10356000002820DA25F020051DE0D8F8180000EB2F
:10357000800006EB40003038C8F818002046E168AB
:103580008847064608F063FB0028EED1012F0AD0D9
:103590002E2E08D12046E16888477F1C0646022F60
:1035A00045F02005C4DBA069002803DA404245F05D
:1035B0000105A061E80701D025F01005A6B1A6F12C
:1035C0004100192802D8203645F400654A463146A4
:1035D000204625604D46FFF7F5FD60B1012807D074
:1035E000ED1D25F0070000E007E000F1080978E78D
:1035F00005F1040975E730467AE7206ABDE8F09FD7
:10360000C6A500000FB400B58DB010A909900091B7
:103610000B904FF0FF300A9000200C900648784441
:103620000690064878446A4607900F9909A800F06A
:10363000F1FD0DB05DF814FB130C00002B0C000025
:103640002DE9FF5F1D464FF0FF3B91464FF000080C
:103650005F46D5E90146A96901987F1C8847296A18
:10366000824688470028F6D1BAF1FF3F0CD0002EE1
:1036700024F4C06419DD600614D5BAF12B0F09D00B
:10368000BAF12D0F0ED103E0584604B0BDE8F09F0B
:1036900044F48064A96901987F1C8847761E82469D
:1036A000002E02DDBAF1300F03D0B9F1000F26D0A1
:1036B00032E0A969761E01987F1C44F400748847A3
:1036C000002E824605DDBAF1780F06D0BAF1580F08
:1036D00003D0B9F1000F10D01EE0B9F1000F02D0F5
:1036E000B9F1100F18D1A969761E01987F1C24F436
:1036F000007488478246102002E0082000E00A207B
:10370000814609E0A96908FB0908761E01987F1C1B
:1037100044F4007488478246002E05DD4946504631
:1037200000F064FD0028EDDAE96901988847A005FA
:1037300002D46FF00100A8E7E00725D1600613D599
:10374000600502D5C8F1000000E0404629680A1D66
:103750002A600968220501D5087015E0220701D505
:10376000088011E008600FE02868011D29600068EA
:10377000210502D580F8008006E0210702D5A0F8D7
:10378000008001E0C0F8008038467EE72DE9FF5F49
:103790004FF000089946144646469169D2E901A7C0
:1037A000DDF838B001988847054659EA0B0005D086
:1037B00009E0A1690198761C88470546216A2846D8
:1037C00088470028F5D1681C03D05FEACA7005D08D
:1037D00015E04FF0FF3004B0BDE8F09F2068011DF8
:1037E0002160D0F800800AE05FEACA7001D108F8D1
:1037F000015BA169761C01987F1E88470546002F52
:103800001ADD681C18D0B9F1000F0DD0E81705EBD0
:10381000D060421120F01F0059F822102A1A01200E
:1038200090400142E0D107E0BBF1000FDCD1284617
:10383000216A88470028D7D0E16901988847BBF101
:10384000000F07D1002E05DD5FEACA7002D100210A
:1038500088F80010A068B84203DDBBF1000F03D068
:1038600017B16FF00100B6E73046B4E770B5064611
:1038700000F000FA0468054630460A22002100F0F4
:1038800049FD2C6070BD401ECAB210F8011F8A426B
:1038900002D00029F9D10020704730B505460B460B
:1038A0002A4613F8014B12F8010B08B1A042F8D0D8
:1038B0001CB1002802D06D1CF1E7284630BD40EA5B
:1038C0000103024630B59B0710D14FF0013400E0F0
:1038D00008C208C91D1B9D4315EAC41FF8D013F088
:1038E000FF0102F8011B0DD01B0AF8E711F8013B9C
:1038F000002B02F8013B05D011F8013B002B02F828
:10390000013BF3D130BD10B5431C02E010F8011BA0
:1039100071B18107FAD14FF0013202C88C1A8C4381
:1039200014EAC211F9D0C01A0A0603D0C01E10BD95
:10393000C01A10BD0A0401D0801E10BD0902FCD0BF
:10394000401E10BD032A40F2308010F0030C00F03E
:10395000158011F8013BBCF1020F624498BF11F8C9
:1039600001CB00F8013B38BF11F8013BA2F1040282
:1039700098BF00F801CB38BF00F8013B11F00303FA
:1039800000F02580083AC0F0088051F8043B083A5E
:1039900051F804CBA0E80810F5E7121D5CBF51F800
:1039A000043B40F8043BAFF30080D20724BF11F87A
:1039B000013B11F801CB48BF11F8012B24BF00F8DF
:1039C000013B00F801CB48BF00F8012B704710B550
:1039D000203AC0F00B80B1E81850203AA0E8185007
:1039E000B1E81850A0E81850BFF4F5AF5FEA027CC8
:1039F00024BFB1E81850A0E8185044BF18C918C037
:103A0000BDE810405FEA827C24BF51F8043B40F8D7
:103A1000043B08BF7047D20728BF31F8023B48BFBC
:103A200011F8012B28BF20F8023B48BF00F8012BFA
:103A300070474FF000020429C0F0128010F0030C10
:103A400000F01B80CCF1040CBCF1020F18BF00F891
:103A5000012BA8BF20F8022BA1EB0C0100F00DB840
:103A60005FEAC17C24BF00F8012B00F8012B48BF9E
:103A700000F8012B70474FF0000200B51346944642
:103A80009646203922BFA0E80C50A0E80C50B1F1B6
:103A90002001BFF4F7AF090728BFA0E80C5048BFCA
:103AA0000CC05DF804EB890028BF40F8042B08BF68
:103AB000704748BF20F8022B11F0804F18BF00F864
:103AC000012B704710B503681C1404EB21449BB212
:103AD00089B2194494FBF2F302FB134394FBF2F412
:103AE00001EB034393FBF2F102FB113193FBF2F381
:103AF00001E05B1E11440029FBDB016003EB044085
:103B000010BD2DE9F04704464FF0FF3A86B000683B
:103B1000029060680390A0680490E06801902069BA
:103B20000090656905F18040B0F1004F7DD83C22DE
:103B3000002102A8FFF7C6FF3C22014603A8FFF7B9
:103B4000C1FF1822014604A8FFF7BCFF411E40F246
:103B5000B55201A8FFF7B6FF0C22064668460021C1
:103B6000FFF7B0FF00EB860028443E4D00267D4461
:103B70000FE09A1A491CCDE90012022902D00C2943
:103B800007D104E0810704D0521C019201E0401CDF
:103B900000960099019B6A5C9A42EADD012906D1F0
:103BA0001C2B04D1810702D00221CDE90016A0F11F
:103BB00046018B2940D20199009B00220F4602E06A
:103BC000AE5C521C31449A42FADB012B02DD8207C3
:103BD00000D0491E40F2B55540F26D16C21700EBF9
:103BE000927292106A4300F0030505FB06228507D6
:103BF0000A4400D1521E049D02EB4206DDF80C80FF
:103C0000A94605EBC605184EC5EB0515DDF808C03D
:103C100008EB850535442E14ADB2C6EB0616C5EB90
:103C20000515B6000CEB850500E005E006EB154632
:103C300066F31F45360C03D0504606B0BDE8F0874A
:103C4000C4E904307F1C0720521CC4E9029792FB90
:103C5000F0F3E4E806C800FB132084E803042846D8
:103C6000EBE70000459F0000A039CEFD704770478C
:103C70007047704700487047D447002010B5FFF7E1
:103C8000F9FF006810BD10B50446FFF7F3FF0460AC
:103C900010BD2DE9F0470D4699469246044600F1C5
:103CA00024080168880604D5E06921F0100121602C
:103CB00000E00120A84201DD471B00E00027A169C8
:103CC0007A1902EB0900081AA0612078C00602D414
:103CD0002046FFF743FB002608E0D4E901211AF84B
:103CE00006009047206A401C761C20624E45F4DB9B
:103CF0002078C0060AD52046FFF730FB06E0D4E95D
:103D0000012130209047206A401C2062381EA7F114
:103D10000107F4DC07E0D4E9012118F80500904719
:103D2000206A401C2062281EA5F10105F3DC204614
:103D3000FFF72AFB2078000602D50220BDE8F087B5
:103D40000120FBE770472DE9FF4F0C461E464FF060
:103D5000FF378BB0D2E90001DDF860800A908A4617
:103D6000C1F30A5505B93D46002108464FF0000051
:103D7000BAF1000F00F4400005DA00EB80004FF4C8
:103D8000400101EA50004FEA9059B9F1010F00DDFE
:103D9000B9460A9850EA4A000ED044F61050A5F2EF
:103DA000FF3545432F14B8F1000F1ED07542291E70
:103DB0001EDDC9F100021CE0B8F1010F4FF0000058
:103DC00001D0302103E0F24305E02154401CB04211
:103DD000FBDB30460022002121540B99C1F80880FA
:103DE000C1E900200FB0BDE8F08FBD1B6D1CDEE700
:103DF0004A4600DA694206A800F06CFD06AB93E87B
:103E0000070003AB83E8070050460A9901F0CBFA9C
:103E10008DE80700A0F500501F3800900398002D92
:103E200009DD42F21F014A46084403A9039068468F
:103E300001F055FD08E0A0F500504A461F3803A9DF
:103E40000390684601F073FD8DE807000004000C44
:103E500003D04FF0FF30410800E01046B8F1000FEA
:103E600003D00022009215461EE0751E05D400F016
:103E700099FA303262556D1EF9D5B34601220843D6
:103E800002D000227F1C04E02078302801D10022DB
:103E90007F1E002A099786D01DE0112D07DA00F059
:103EA00081FA303262556D1C50EA0102F5D10843A7
:103EB00002D00098C8B10EE00021681E05E0235C26
:103EC000625C63542254401E491C8142F7DBAB46BE
:103ED000A81B401E0990002004F80B000B98099ABB
:103EE000C0F80880C0E9002B7CE711264FF00008DD
:103EF00059E72DE9F04F88460446D21D22F007010C
:103F000091B0D1E90001CDE90A0107F025FE024692
:103F10000B98C00F01D02D2007E02068810701D544
:103F20002B2002E0202101EAC000032A099001D0E1
:103F3000072A05DB03464146204600F081FA0BE1E3
:103F40002078800601D5E06900E00620B8F1650F11
:103F5000814606D0B8F1660F18D0B8F1670F70D15E
:103F600031E00020B9F1110F009001DB112301E0D5
:103F700009F101030AAA01A90CA8FFF7E4FEDDE993
:103F80000C70002609F10105834647E001204B46ED
:103F900000904FF000470AAA01A90CA8FFF7D3FE32
:103FA000DDE90DB00C995D46002610B909F101005C
:103FB0000D18B9EB050003D4C0F1FF3609F1010576
:103FC000A5EB09002BE0B9F1010F01DA4FF001096F
:103FD0000020B9F1110F0090484601DD112300E0E7
:103FE00003460AAA01A90CA8FFF7ADFEDDE90C7093
:103FF0004D4600268346207800070AD4AB4500DAF8
:104000005D4601A8012D04DD411911F8011C30297C
:1040100007D04F4502DA17F1040F04DA0120824677
:104020000FE06D1EEEE7002F02DCED1B3E4403E0C7
:10403000781CA84200DD7D1CB81B00F1010A4FF07E
:1040400000472078000703D4AA4501DB4FF0FF3A70
:104050000021B7F1004F0DF143088DF8431024D033
:1040600002202B23002F01DA7F422D230A21021E7A
:10407000A0F1010000DC5FB197FBF1FC97FBF1F2CE
:1040800001FB1C7C17460CF1300C08F801CDEEE763
:10409000A8F1010003702188090501D5452100E040
:1040A0006521A0F1010800F8011C09980FA9A1EBF6
:1040B0000807FF1D00B10120411901EBEA70A16959
:1040C0003844081A401EA0612078C00602D4204659
:1040D000FFF744F9099828B1D4E901219047206AF3
:1040E000401C20622078C00622D52046FFF736F912
:1040F0001EE0002E04DBB34502DD01A8805D00E078
:104100003020D4E901219047206A401C2062761CAF
:10411000AAF101005FEA000A0AD100F03FF9C06885
:104120000168405CD4E901219047206A401C20626C
:10413000281EA5F10105DCDC07E0D4E9012118F80F
:10414000010B9047206A401C2062381EA7F101072E
:10415000F3DC2046FFF718F9032011B043E6000016
:1041600001694A1C02610878704700B58FB0CDE93B
:1041700001310021059105497944CDE9031011462B
:104180006846FFF7A3F90FB000BD0000E5FFFFFF91
:104190000A6802F8010B0A60704710B5436913B151
:1041A000AFF3008001E0FFF700F9012010BD1278A5
:1041B00000F124010A7000224A700122EDE7116823
:1041C0004FF0FF32E9E70000074B70B50D467B4426
:1041D000FFF7CBFF0446284600F0EAFB10B14FF092
:1041E000FF3070BD204670BDC38300003A2800D266
:1041F000303820F02002412A01D3A2F13700884252
:1042000001D34FF0FF30704702681144137801600A
:1042100018467047D1600549794451610449794491
:10422000116200211161114600F04AB9EDFFFFFF54
:104230000D020000426842B1016811F8013B23B150
:10424000521EC0E90012184670470121C160881E45
:10425000704742685AB1C368016843B983688B42AA
:1042600005D0491E521CC0E90012002070474FF0D3
:10427000FF3070470FB4002300B589B00CA900913E
:104280000B99CB60204B7B440693204B7B440793D8
:1042900004236FF00042CDE901321D4A7A446B4697
:1042A00008920246002009F048FB09B05DF814FBB3
:1042B00070B506464FF0FF3015460C46324686B0C4
:1042C0000091CDE9010169460020049004A8FFF7A0
:1042D000D1FF03460498211825B108B10A4600E031
:1042E00022462A6000280DD0002B02DD009888426B
:1042F00008D03246081B69460094CDE9010404A8A1
:10430000FFF7B8FF06B070BDABFFFFFFC3FFFFFFB5
:104310008F0100002DE9F04791460F468046044684
:10432000002614F8015B2DB100F030F80068405D04
:10433000C007F6D12B2D02D02D2D18D0641E4A4671
:104340003946204600F076FA27B13968A14201D1FA
:10435000C7F800804FF0020471050BD540420028D9
:1043600003DDFFF787FC0460A007BDE8F08746F493
:104370008066E4E70028F8DAFFF77CFC04606FF061
:104380000040F2E700487047D447002010B500F025
:1043900005F8001D10BD00BF618400000048704793
:1043A000F447002030B5B0F10A024FEA900E71F1E7
:1043B00000034EEA817EB0EB0E0061EB91014FEA03
:1043C000101E4EEA017E10EB0E0041EB11114FEA78
:1043D000102E4EEA016E10EB0E0041EB11214FEA58
:1043E000104E4EEA014E10EB0E0041EB1141401809
:1043F00041F100014FEAD00040EA41704FEAD1019B
:1044000010EB80054FEA810444EA907444EB010408
:104410006D1944EB0404521BA3414FF0000348BF45
:104420000A3200D530BD401C41F1000130BD10B54D
:104430000446FFF7ABFF0068005D00F0010010BD0F
:104440002DE9F0411F46044603260168072A01F4BE
:10445000006004DB08B116A505E016A503E008B16D
:1044600015A500E015A521F010002060A069C01E70
:10447000A0610FB1401EA0612046FEF76FFF4FB153
:10448000D4E9012138469047206A401C2062C01CB4
:10449000206206E0206AFAE7D4E9012115F8010B51
:1044A0009047761EF8D22046FEF76EFFBDE8F081F9
:1044B0004E414E006E616E00494E4600696E6600C8
:1044C0002DE9F34F4FF0000A0C4656468DB00120FF
:1044D0000C9001F10C000B9062690B980121904740
:1044E00005002DD0252D2CD0216A8847C0B16269E6
:1044F0000B9801219047216A88470028F7D162690B
:10450000411E0B98904700E0761CA1690D988847E2
:10451000216A88470028F7D1E1690D988847DBE7D1
:10452000A1690D988847A842074601D1761CD3E7B8
:10453000E1690D9888477F1C02D1BAF1000F6FD056
:104540006BE162690B9800273D46394690472A285F
:1045500004D162690B98012190470125DFF8D082D0
:1045600062690B9801219047A0F130010A290AD213
:104570004745E5DC07EB870100EB4107303FDFD41F
:1045800045F01005ECE7E90601D46FF000476C2810
:104590000AD04C2814D0682815D06A280DD0742869
:1045A0001CD07A281AD01DE062690B98012190472F
:1045B0006C2802D045F0040514E045F002050DE03A
:1045C00045F020050AE062690B98012190476828B0
:1045D00002D045F0080505E045F4006562690B98D6
:1045E00001219047C4E9015765283DD019DC5828BE
:1045F0007AD00CDC452837D004DC252826D0412889
:104600009ED131E046282FD0472899D12CE05B2855
:1046100077D0612828D063287CD0642823D15AE041
:10462000F6E06F2848D008DC66281DD067281BD02C
:10463000692821D06E2816D127E0702845D073282C
:1046400068D0752847D078280DD14DE0A1690D9824
:104650008847252805463FF469AFE1690D988847EA
:104660006D1C3FF46AAFD8E00D9923466A466FF09F
:10467000010009F062F9C5E045F0400023464FF023
:1046800000026060A80736D43EE0E8077FF447AF39
:104690002068011D21600068290501D506701BE70F
:1046A000290701D5068017E7A90703D5F117C0E947
:1046B000006111E706600FE745F0400023464FF028
:1046C00008026060A80716D41EE040F60E0125EA35
:1046D0000100606016E045F0400023464FF00A02FA
:1046E0006060A80707D40FE045F040006060A807AD
:1046F00008D5234610220D996FF00100AFF300801A
:1047000080E007E0102223460D996FF00100FEF7CC
:1047100097FF77E04FF0000963284F46C8464B46A5
:10472000CB4602D05B2806D038E0E80601D4012051
:10473000A060012732E06269D4F80CB00B98012127
:1047400090475E2807D14FF0010949466269D4F8C5
:104750000CB00B989047216939B900210A4603AB88
:1047600043F82120491C0829FADBD8B3216949B351
:1047700008F1010862690B98012190475D28F4D186
:10478000B9F1000F09D0002003A951F82020D2432D
:1047900041F82020401C0828F7DB03AB20690028E3
:1047A00020794FEA40701ED05B462246CDF800804B
:1047B000CDE901970D9900286FF0010020DAAFF3E1
:1047C00000801FE0C11703AA00EBD1614B1121F05B
:1047D0001F0102EB8302411A136801208840034342
:1047E0001360C7E719E00D99224600286FF0010019
:1047F000009702DAAFF3008004E0FEF7C7FF01E0A4
:10480000AFF3008000280ADA401C06D10C9820B1D2
:104810004FF0FF300FB0BDE8F08F5046FAE7E907E0
:1048200001D10AF1010A064400200C9054E6000070
:10483000CCCCCC0C2DE9F05F824615468B46002788
:104840000AF10104B9460078302801D09DB113E087
:1048500014F8010B0127782803D0582801D045B15E
:104860000AE00DB1102D07D1002714F8010B102517
:1048700002E0082500E00A250026B0460EE005FB10
:10488000080005FB06F101271FFA80F801EB10462E
:10489000B6F5803F00D3B94614F8010B2946FFF75F
:1048A000A5FC0028EBDABBF1000F05D00FB1641EA8
:1048B00000E05446CBF80040B9F1000F06D0FFF7F6
:1048C000D9F902210160C81EBDE8F09F48EA064000
:1048D000FAE700002DE9F047814616468AB03348D2
:1048E00078440DC88DE80D0030487844801C03AC36
:1048F0000DC884E80D0041F69B300844372190FB39
:10490000F1F290FBF1F5A5F1800501FB12041B3CCF
:1049100002D56442012000E00020DFF890A080462C
:104920000027FA44AAF1BE0A0DE0E00709D032469A
:10493000684607EB47010AEB810100F0F8FF8DE8BC
:10494000070064107F1C002CEFD1184F7F44AC3F50
:1049500018E0E80714D007EB04100DF1180A90E8EE
:104960000E008AE80E00C068F04201D19819089044
:10497000324606A903A800F0DAFF03AB83E807007C
:104980006D10641C002DE4D132466946B8F1000F69
:1049900003A802D000F0A3FF01E000F0C8FFC9E9BE
:1049A0000001C9F808200AB0BDE8F0875C92000059
:1049B000007B00F0800070477546FFF7E3FCAE46D1
:1049C00005006946534620F00700854618B020B51B
:1049D000FEF736FCBDE820404FF000064FF0000720
:1049E0004FF000084FF0000B21F00701AC46ACE897
:1049F000C009ACE8C009ACE8C009ACE8C0098D4604
:104A0000704700002DE9FF4F064689B00878FF285F
:104A100006D0491C2D2805D000244FF0000908E0DD
:104A200000200CE00124F8E709EB8903491C00EBA6
:104A300043090878FF28F7D114B1C9F10000814675
:104A4000107800252C46AA4629462D2801D02B286F
:104A500004D1521C2D2813D0002082468B4610789A
:104A6000FF280FD04FF0000C0A21521CA5FB017843
:104A700004FB018105FB0C11C5194BEB0104EEE7AA
:104A80000120EAE7002108464FF00000BAF1000FCC
:104A900002D000EB80004008C0F38158B8F1010F4C
:104AA00001DD4FF0FF380C9809EB000755EA0400D0
:104AB00009D04FF0020917F5FA7F0BDA4FEACA70F6
:104AC000C6E900B012E04FEACA70C6E900B00DB006
:104AD000BDE8F08FB7F5FA7F0DDDF0487844D0E9F6
:104AE0000010C6E9001040EACA707060FFF7C2F813
:104AF000C0F80090EBE7391E02DAC8F1000200E0CE
:104B0000424600DA794206A8FFF7E4FE06AB93E8D6
:104B1000070003AB83E8070044F23E005BEA0401B0
:104B20000090584604D144F21E012C465D46009187
:104B3000210C0904014306D10099240444EA1544D8
:104B40002D041039009104F07F41014306D10099F2
:104B5000240244EA15642D020839009104F07041E2
:104B6000014306D10099240144EA15742D01091F5F
:104B7000009104F04041014306D10099A40044EAA9
:104B80009574AD00891E009104F00041084304D1E2
:104B900000986D196441401E009042466846002FFF
:104BA000CDE9014503A902DD00F0D5FE01E000F0EA
:104BB000AAFEBAF1000F04460D4601D084F000446D
:104BC00040F2FF7724F00040284303D0C4F30A509A
:104BD000B84212D1FFF74EF8C0F80090C4F30A5063
:104BE000B8420AD1AE487844D0E90010C6E90010B6
:104BF00004F000410843706069E7C6E9005466E7C5
:104C00002DE9FF4F1F464FF0000A4FF0FF38454691
:104C100091B0D7E90146CDF83CA0FFF7BFFBC068D3
:104C20000168405C1090B96912986D1C8847396A18
:104C3000814688470028F6D1B9F1FF3F0AD0002EFF
:104C400024F4D06411DDB9F12B0F08D0B9F12D0F88
:104C50000BD102E0404615B03AE744F48064B969EC
:104C600012986D1C8847761E8146600504A901D5FF
:104C70002D2000E02B20002E01F1010B0DF130085A
:104C80008DF810003FDDB9F1690F08D0B9F1490F77
:104C900005D0B9F16E0F02D0B9F14E0F1CD13B46D1
:104CA00001A8009580E85002DDE912126FF00200C1
:104CB00008F047FEC11CCED10EE0B96912986D1CF8
:104CC000884781461398761E44F4007405600F9857
:104CD000401C002E0F9016DDB9F1300FEDD0B9F168
:104CE000780F02D0B9F1580F0DD10F9801280AD1D1
:104CF0003B46CDE90054DDE91212001F029608F090
:104D00001EFEC11CA7D1109989453ED144F08004F4
:104D100006E01399681CAAF1010A44F400740860C3
:104D2000B9696D1C1298761E884730288146F0D0EC
:104D30002BE01099894505D1200603D4761E44F056
:104D4000800418E0484606F082FF08B3761E0DF195
:104D500023018B4544F4007408D2A9F130000BF80C
:104D6000010B200607D5AAF1010003E0200602D4BA
:104D70000AF101008246A00502D51399681C08605B
:104D8000B96912986D1C88478146002ED1DC53E02A
:104D9000002E51DDB9F1650F02D0B9F1450F4BD1AD
:104DA000A00549D5B9696D1C1298761E24F440748B
:104DB0008847002E81460CDD2B2804D0B9F12D0F39
:104DC00007D144F48074B96912986D1C8847761E27
:104DD0008146E00501D52D2100E02B2108F8011BBB
:104DE000CDF8008021E0761E0DF13901884544F4AC
:104DF00000740CD2A9F1300010F0FF0088F8000018
:104E000002D10099884509D908F1010806E0E005BA
:104E100001D5244801E042F20F708246B969129828
:104E20006D1C8847814613980560002E04DD4846B6
:104E300006F00DFF0028D6D1F96912988847FF20A7
:104E400053468BF8000088F8000000200A900B9071
:104E500004AA0CA90AA8FFF7D5FDA00502D46FF09B
:104E60000100F8E614F0240F0AD0E00714D13868E6
:104E7000DDE90A12031D3B600068C0E900120BE087
:104E80000AA9684606F08CFEE00705D13868009A4A
:104E9000011D3960006802602846DCE69890000039
:104EA0008E8F0000F1D8FFFF0446AFF3008020464C
:104EB000FEF7B1F94FF0013C50F8042B51F8043BD8
:104EC0009A4221D1A2EB0C03934313EACC1317D1DE
:104ED00050F8042B51F8043B9A4215D1A2EB0C0375
:104EE000934313EACC130BD150F8042B51F8043B35
:104EF0009A4209D1A2EB0C03934313EACC13DBD003
:104F00004FF00000704700BFD01A01BAB1FA81F12A
:104F100001F0180122FA01F0CB40C1F12001DBB20F
:104F2000C0B2C01A2CFA01F3D11A914311EAC3118D
:104F3000E6D170472DE9FF4F1F464FF03C0987B07F
:104F40004FF00042DDE9141001F10108DDF858A02E
:104F500002EA405003900020049083460546044630
:104F60000590B969461E08988847AAF1010A02907F
:104F7000BAF1000F37DD02982E2815D01021FFF767
:104F800035F900282ADB4FF0010B0499014316D0B4
:104F9000B9F1000F0BDB4A46C11700F0F1F90543E8
:104FA0000C43A9F1040905E00120059007E008B1D0
:104FB00045F0010501200490059800B9361DB96936
:104FC000089808F101088847BBF1000FAAF1010A0F
:104FD0000290CDD00999C1F80080C9E702987028E5
:104FE00008D0502806D0F96908988847BBF1000F0F
:104FF00014D04FE0002002900120BBF1000F04907C
:1050000009D0B969089808F101088847AAF101098F
:10501000B9F1000F07DCF969089888476FF00100C3
:105020000BB0BDE8F08F2B2804D02D280CD14FF009
:10503000FF300490B969089808F101088847A9F180
:105040000109B9F1000FE6DD411CE4D00A21FFF7A8
:10505000CDF80028DFDB029908F1010801EB81019E
:1050600000EB41000290B969089888470A21FFF7D0
:10507000BDF8099AA9F10109B9F1000FC2F8008041
:1050800001DD0028E7DAF969089888470499029851
:1050900000FB016655EA040004D004F04041090019
:1050A00002D006E0039898E0A40044EA9574AD00AD
:1050B000B61E04F00041080002D16D196441761E4D
:1050C000159810F0240F03D04FF00B095C4803E053
:1050D0004FF028096FF07D008246564507DAAAEBAB
:1050E00006018944B9F1410F01DD4FF0410901206A
:1050F0000021A9F1010200F043F9024628400B46C5
:105100002140084301D0012100E00021501E0291FE
:1051100043F1FF3128402140084301D0012000E045
:1051200000200299834651EA0B014FD00021084626
:105130004FF00000039900F4400039B100EB80000B
:105140004FF4400100EBD07001EA600080150128A7
:1051500002DD4FF0FF3000E013D0401C36D0029843
:1051600060B3BBF1000F0CD14A460120002100F0D2
:1051700007F928402140084301D0012000E0002029
:10518000E0B101204A46002100F0FAF80346401938
:105190000A4661412D1A8C4111D3B9F1400F09DD46
:1051A000159810F0240F02D0AAF1340603E0AAF1FA
:1051B000170600E0761C00254FF0004406E05B1E59
:1051C00042F1FF3220EA030521EA0204CAF101009C
:1051D000B04206DA1B490398084301900020009072
:1051E0000EE0039AC4F3D321E80A0A43164940EAC1
:1051F00044500A433146CDE90002684606F01CFDE2
:10520000159810F0240F0BD01598C00715D13868E9
:10521000DDE90012031D3B600068C0E900120CE0EC
:1052200002A8694606F0BCFC1598C00705D138688D
:10523000029A011D3960006802604046F0E60000F5
:1052400002FCFFFF0000F07F0000F03F2DE9FF4F60
:1052500092461D4685B04FF00041DDE9124BDDE975
:1052600014727F1E01EA4B50414940F0FF4940EA69
:105270000108002122F020004928049102D04E2884
:1052800028D04CE03BA0012607C88DE80700A9699B
:105290000698641C88477F1E014606D41DF8060048
:1052A00018B121F0200181420BD0E96906988847A6
:1052B000032E34D0082E32D06FF0010009B0BDE8C3
:1052C000F08F761C032E01D0082EE0D1601CCAF8A6
:1052D0000000DCE7A9690698641C88477F1E2AD471
:1052E00020F02000412826D1A9690698641C88472F
:1052F0007F1E20D420F020004E281CD1A9690698DA
:10530000641C88477F1E48F4002849F48009CAF8C5
:10531000004001D4282806D0E969069888475FEA4A
:10532000CB7012D022E0A9690698641C88477F1EC2
:1053300001D4002803DAE96906988847BCE72928E0
:10534000F1D1641CCAF80040E9E71BF0240F07D034
:1053500028680499031D2B600068C0E9001805E067
:105360002868021D2A600068C0F800902046A5E762
:105370000000F07F494E46494E4954590000000054
:10538000B2F120030AD5C2F1200301FA02F120FA9A
:1053900003F300FA02F041EA0301704700FA03F157
:1053A0004FF0000070475FEA400C08BF91F0000F1B
:1053B0004FEA8C234FEAC12243EA51514FEA1C5075
:1053C00018BF00F5F0404FEA300018BF41F000412F
:1053D0005FEA6C5C00F02980BCF1FF3F08BF40F041
:1053E00080407047130C06BF12044FF0100C4FF0B2
:1053F000000C130E04BF12020CF1080C130F04BFB3
:1054000012010CF1040C930F04BF92000CF1020C7A
:10541000D30F04BF52000CF1010C11464FF00002F3
:10542000A0F11F00A0EB0C00704711F0004F08BF67
:10543000704731F000413FF4D5AF0B0C06BF0904B3
:105440004FF0100C4FF0000C0B0E04BF09020CF1D2
:10545000080C0B0F04BF09010CF1040C8B0F04BFE7
:1054600089000CF1020CCB0F04BF49000CF1010CB8
:10547000CCF12003A0EB0C0022FA03F302FA0CF2A9
:1054800041EA030100F10100704720F07F4C80EAFF
:10549000030023F07F47ACEB070303F57C5300F0D8
:1054A000004003F1FF032DE980494FEA154B09B491
:1054B0004FEA144325EA0B4E24EA03480FF2042670
:1054C00006EB132749083E785FEA320203FB0667C2
:1054D000C7F5000707FB06F64FEA54374FEAD646F2
:1054E00006F1020607FB066CCCF1005C4FEA1C4794
:1054F0002CEA074C07FB06F40CFB06F504EB1546FB
:105500004FEA961634BF00204FF000404FEAD137E3
:1055100006FB07FC4FEA1C4C0CFB0BF7D21B03FBF2
:105520000CF761EB07010CFB0EF7B0EB074072EBD9
:1055300017420CFB08F734BFA2EB0742B2EB07425D
:1055400061EB17414FEA0C444FEA910706FB07FC59
:105550004FEA1C4C0CFB0BF7B0EBC74072EB573219
:1055600003FB0CF734BFA2EBC742B2EBC74261EBBF
:1055700057310CFB0EF7B0EBC70072EB57720CFB08
:1055800008F734BFA2EBC702B2EBC70261EB577159
:10559000039F4FEA816141EA921104EBCC044FEA88
:1055A000D1374FEA826206FB07FC42EA90124FEACB
:1055B00080604FEA1C4C0CFB0BF7D21B03FB0CF773
:1055C00061EB07010CFB0EF7B0EB074072EB1742E3
:1055D0000CFB08F734BFA2EB0742B2EB074261EBCA
:1055E00017414FEA8C554FEA910704EB9C2406FBC8
:1055F00007FC4FEA1C4C0CFB0BF7B0EBC74072EBFF
:10560000573203FB0CF734BFA2EBC742B2EBC742E1
:1056100061EB57310CFB0EF7B0EBC70072EB577222
:105620000CFB08F734BFA2EBC702B2EBC70261EB79
:10563000577115EB4C254FEA816141EA92114FEA0F
:1056400082624FEAD13742EA901206FB07FC44F12E
:1056500000044FEA80604FEA1C4C0CFB0BF7D21B96
:1056600003FB0CF761EB07010CFB0EF7B0EB0740F7
:1056700072EB17420CFB08F734BFA2EB0742B2EB08
:10568000074261EB174115EB1C154FEA813141EAE6
:1056900092414FEA823242EA90424FEA80304FEA2A
:1056A0000C7644F1000448EA03434EEA0B484FF0FD
:1056B000000EB2EB080C71EB030724BF62463946BB
:1056C0004EEB0E0E4FF0000B0018524149414BEBD0
:1056D0000B0BB2EB080C71EB03077BF1000B24BF43
:1056E000624639464EEB0E0E4FF0000B0018524149
:1056F00049414BEB0B0BB2EB080C71EB03077BF151
:10570000000B24BF624639464EEB0E0E51EA0207EB
:1057100018BF46F0010616EB0E7655F1000254F163
:10572000000103D5BDE88901BDE80088BDE8890115
:10573000BDE80048B619524141EB0101A3F1010354
:10574000704780807F7E7D7C7B7A797877767675EE
:105750007473727171706F6E6E6D6C6C6B6A6A6966
:105760006868676666656464636362616160605F00
:105770005F5E5E5D5D5C5C5B5B5A5A595958585779
:1057800057565655555554545353525252515150E1
:1057900050504F4F4F4E4E4D4D4D4C4C4C4B4B4B34
:1057A0004A4A4A494949484848474747474646467A
:1057B00045454544444444434343434242424241B5
:1057C0004141000046EA0646A3F570534FEA1646EB
:1057D00046EA42564FEAD22242EA415210B54FEA17
:1057E000D121A3F1010300F017F820F0004000F1EF
:1057F000010C00F0004701EB00501146BCF5006FB2
:1058000040EA070000D210BD02484FF0000140EA14
:10581000070010BD0000F07F002B26D4770021D0B8
:105820001CB54FEA370703B44FF010004FF01001DA
:105830004FF000000FBCBDE810400BF1010BBBF1B5
:10584000010F08BF5FEA170722BF12F1010211F131
:1058500001014FF0004143F1000300F0004043EA32
:1058600000007047F9D35708DAE746EA064613F115
:10587000400F4FEA16461FDD13F1200FDFBF16431E
:105880000A46002120335B42C8D0C3F1200746EA14
:10589000064602FA07F74FEA164646EA0706C3F13C
:1058A000200722FA03F201FA07F721FA03F14FF079
:1058B000000342EA0702B1E746EA020646EA064664
:1058C0004FEA164646EA0106BCBF46EA0646360CD3
:1058D0004FF000034FF000024FF000019EE72DE96A
:1058E000C048934630B491E8380007C831EA400C0C
:1058F00048BF34EA430C03D5FFF7C7FDFFF78CFF21
:10590000F0BCBDE800882DE9C048934630B491E86A
:10591000380007C831EA400C48BF34EA430C03D5CD
:10592000FFF7B3FDFFF74EFFF0BCBDE800882DE99F
:10593000C048934630B491E8380007C810F0804F53
:1059400008BF13F0804F03D100F019F8FFF764FF90
:10595000F0BCBDE800882DE9C048934630B491E81A
:10596000380007C810F0804F08BF13F0804F03D1F4
:1059700000F005F8FFF726FFF0BCBDE8008820F036
:105980007F4780EA030023F07F4C07EB0C03A3F56D
:105990007C5300F00040A3F1FE0392F0000F00F0F2
:1059A000B38095F0000F00F077802DE901494FEAB0
:1059B00011404FEA144621EA004800FB06FC24EAA5
:1059C000064708FB06F607FB08F800FB07F718EB8D
:1059D00006484CEB164C4FEA124B18EB07484FEABF
:1059E00015464CEB174022EA0B4E0BFB06FC25EA52
:1059F00006470EFB06F607FB0EFE0BFB07F71EEB3A
:105A0000064E4CEB164C4FF000061EEB074E4CEBCF
:105A1000174B18EB0B0840F1000018EB0E0B58EB7E
:105A2000000840F100008F1A4FF000013CBFC9434D
:105A3000661B14BFB5EB040C00213CBFC943F61B29
:105A40004FEA17444EEA8E0E27EA04454FEA1C47F8
:105A500004FB07622CEA074C05FB07F70CFB05F675
:105A600004FB0CFC16EB074642EB174216EB0C4608
:105A700042EB1C421BEB060658EB0202414146EA90
:105A80009E0601D5BDE80189B619524141EB0101DD
:105A9000A3F10103BDE801894FEA14454FEA11471C
:105AA00024EA054621EA074C05FB07F406FB07F745
:105AB0000CFB06F105FB0CFC11EB074144EB174412
:105AC0004FEA124711EB0C4144EB1C4422EA074C0D
:105AD00005FB07F206FB07F70CFB06F605FB0CFCC3
:105AE00016EB074642EB174216EB0C4642EB1C4501
:105AF0006A1854F1000148BF7047B619524141EB92
:105B00000101A3F10103704795F0000F37D04FEA70
:105B100011424FEA144721EA024624EA074C02FBED
:105B200007F106FB07F70CFB06F402FB0CFC14EB79
:105B3000074441EB17414FEA154714EB0C4441EB86
:105B40001C4125EA074C02FB07F506FB07F70CFB97
:105B500006F602FB0CFC16EB074645EB174516EB69
:105B60000C4645EB1C42121951F1000148BF704729
:105B7000B619524141EB0101A3F1010370474FEA0D
:105B800014454FEA114724EA054621EA074C05FB74
:105B900007F106FB07F70CFB06F24FF0000605FBCA
:105BA0000CFC12EB074241EB174112EB0C4251EB9C
:105BB0001C4148BF7047921841EB0101A3F101035A
:105BC000704721B1826842F00102826003E082687E
:105BD00022F001028260704700B585B04FF40040AA
:105BE00004F02AFA0121480204F062FA204800F089
:105BF0004DF80020009001208DF804008DF805007C
:105C00004FF4602002900020039002208DF81000D5
:105C10006946174800F07CF8072301220521144843
:105C200000F09EF8072302220621114800F098F8A0
:105C300001210F4800F01EF801210D48FFF7C1FFB8
:105C40000B4800F0E9F800BF094800F057F80028B9
:105C5000FAD1074800F0F0F800BF054800F044F81A
:105C60000028FAD10121024800F0DBF805B000BDA0
:105C70000024014021B1826842F48072826003E016
:105C8000826822F4807282607047000010B504467A
:105C90001248844208D10121401504F019FA00216C
:105CA000601504F015FA17E00D48844208D101216F
:105CB000001504F00DFA0021201504F009FA0BE09C
:105CC0000848844208D10121C80304F001FA0021E8
:105CD0004FF4004004F0FCF910BD00000024014026
:105CE00000280140003C0140014600208A6802F083
:105CF00004020AB1012000E00020704701460020A4
:105D00008A6802F008020AB1012000E00020704712
:105D100030B502460020002350680F4C20400D791A
:105D20000C6844EA05242043506090680B4C2040E6
:105D3000D1E902542C434D7944EA45042043906054
:105D4000D06A20F470000C7C641EE4B2234340EA65
:105D50000350D06230BD0000FFFEF0FFFDF7F1FF01
:105D6000F0B504460D4600200021092D11DDE06844
:105D7000A5F10A0606EB4607072606FA07F188434F
:105D8000A5F10A0606EB460603FA06F10843E060B1
:105D90000CE0206905EB4507072606FA07F1884362
:105DA00005EB450603FA06F108432061072A0FDADE
:105DB000606B561E06EB86071F2606FA07F188431E
:105DC000561E06EB860605FA06F10843606322E0DC
:105DD0000D2A0FDA206BD61F06EB86071F2606FA60
:105DE00007F18843D61F06EB860605FA06F108433D
:105DF000206310E0E06AA2F10D0606EB86071F267D
:105E000006FA07F18843A2F10D0606EB860605FAAD
:105E100006F10843E062F0BD816841F0080181604D
:105E2000704721B1826842F4A002826003E0826878
:105E300022F4A00282607047816841F00401816011
:105E4000704770477047704770477047704710B58C
:105E5000012004F04DF9002004F04AF910BD0000C3
:105E60002DE9F04F87B004468946012000F06CF818
:105E7000022000F07FFA019006F0CAFF07460022D8
:105E8000244B07F015F800224FF08043CDE90201C2
:105E900007F00EF80022204BCDE9040106F0B0FD1A
:105EA00005461E4A1E4B06F0EFFC824606F0BAFC81
:105EB0000690069807F01AFA05462A460B4619A0DE
:105EC000FDF72CFA069807F011FA074600221A4B44
:105ED00007F022F94FF03332184BCDE9040106F0F8
:105EE0008FFD82460022164B06F0E2FF054606F0C3
:105EF0004BFF20701349069807F07CFB054607F01E
:105F000045FBA9F80000002000F01EF807B0BDE82E
:105F1000F08F00000000044000FEAF409A9999996C
:105F20009999A93F426174746572793A20252E329D
:105F30006620560D0A000000000008403333E33F9E
:105F4000000059400000C84210B504463CB1802111
:105F5000074800F030FEC82006F0B8FA06E08021BD
:105F6000034800F026FEC82006F0B0FA10BD00007D
:105F7000000C0140F0B505460E46002715E0002450
:105F80000EE055F82410601C55F82000814206D917
:105F9000621C05EB820105EB840006F011FC641C19
:105FA000701EC01BA042ECD87F1C701EB842E6D801
:105FB000F0BD00002DE9F041002400260027002557
:105FC000ECE00A2F74D2DFE807F0050E27405B757E
:105FD0008EA7C4DF0020754981F86000012002F01F
:105FE000C9F9012700BF0120704981F86000002431
:105FF0000BE001F0E5FD0546012D00D107E04FF46F
:106000007A7006F063FA601CC4B20A2CF1DB00BFA0
:10601000012D00D0C0E000BF0220644981F860007B
:1060200000240BE001F02EFE0546012D00D107E013
:106030004FF47A7006F04AFA601CC4B20A2CF1DB05
:1060400000BF012D00D0A7E000BF0320574981F811
:10605000600000240DE055482E3001F06DFD05462E
:10606000012D00D107E04FF47A7006F02FFA601C82
:10607000C4B2032CEFDB00BF012D00D08CE000BFC9
:1060800004204A4981F8600000240BE001F056FE2C
:106090000546012D00D107E04FF47A7006F016FA9C
:1060A000601CC4B23C2CF1DB00BF012D01D073E0B9
:1060B0006FE000BF05203D4981F8600000240BE03F
:1060C00002F0B0F90546012D00D107E04FF47A70D7
:1060D00006F0FCF9601CC4B23C2CF1DB00BF012DC2
:1060E00000D059E000BF0620304981F8600000244C
:1060F0000BE001F0DDFC0546012D00D107E04FF477
:10610000FA7006F0E3F9601CC4B20A2CF1DB00BFA0
:10611000012D00D040E000BF0720244981F8600035
:1061200000240FE0214B68331A1F911E481E01F016
:1061300053FF0546012D00D106E0642006F0C6F9A4
:10614000601CC4B2022CEDDB00BF012D00D023E0A7
:1061500000BF0820154981F8600000240DE01348B5
:106160006C3001F051FE0546012D00D107E04FF4DF
:10617000FA6006F0ABF9601CC4B2052CEFDB00BF7F
:10618000012D00D008E000BF0920084981F8600017
:1061900000E000BF00BF00BF701CC6B2012EFFF6BA
:1061A00010AF00F00BFDBDE8F08100006C3800205E
:1061B00021B1026842F00102026004E002684FF679
:1061C000FE731A400260704700B58BB0012108468B
:1061D00003F03EFF114800F027F8114800901148E5
:1061E0000190002002901E20039000200490802047
:1061F0000590400006908000079020200890000243
:10620000099000200A906946044800F0CDF8012169
:106210000248FFF7CDFF0BB000BD000008000240B0
:106220004C240140903D002001684FF6FE72114061
:1062300001600021016041608160C1604B4988427A
:1062400008D14A490839496841F00F01474A083ADC
:1062500051608AE045491431884208D143490839E0
:10626000496841F0F001414A083A51607DE03F49F8
:106270002831884208D13D490839496841F47061A4
:106280003A4A083A516070E038493C31884208D1B6
:1062900036490839496841F47041344A083A516036
:1062A00063E032495031884208D1304908394968A1
:1062B00041F470212D4A083A516056E02B4964316F
:1062C000884208D129490839496841F47001274AB0
:1062D000083A516049E025497831884208D123497C
:1062E0000839496841F07061204A083A51603CE041
:1062F0001F49884206D1011F096841F00F01021FA2
:10630000116032E01A491431884208D11849091F36
:10631000096841F0F001164A121F116025E0144986
:106320002831884208D11249091F096841F4706177
:106330000F4A121F116018E00D493C31884208D104
:106340000B49091F096841F47041094A121F116085
:106350000BE007495031884207D10549091F0968F8
:1063600041F47021024A121F116070470800024078
:106370000804024002460023042A01DD0020704781
:10638000002107E0074800EB810030F812000344C9
:10639000481CC1B20A29F5DB0A20B3FBF0F398B21E
:1063A000EDE70000903D002010B50022026847F69E
:1063B000F0739A430C6A8B6823430C6923434C693E
:1063C00023438C692343CC6923434C6A23438C6A5F
:1063D00023431A430260CB6843600B6883604B68B9
:1063E000C36010BD002400BF204600F03DFD0CB985
:1063F000012000E0002004460948007801280AD165
:106400004FF4FA71074804F001FB00200549A1F898
:10641000F401034908704FF4FA7002F07BFFE3E7E0
:106420005C000020A439002010B51448006800F476
:10643000006008B312480088B0F5B97F18DD104835
:10644000008841F27071884212DC0D4824380088BF
:106450004FF6FE7108400A4924390880074814386D
:10646000006820F4006005491439086004F002FF58
:106470004FF400600149086010BD000014040140A1
:106480002408004008B50E48006820F008000C49B8
:106490000860082000F018F84FF0E020006940F094
:1064A00001004FF0E021086102F02CFC6B46012254
:1064B00080210448006802F073FB02F035FC08BD3F
:1064C000000401401C0000200149086070470000E2
:1064D000140401400EB50121084603F0E9FD0B212B
:1064E000022000F06DFA0321022000F069FA4FF457
:1064F0000060019000208DF8080008208DF8090048
:1065000001208DF80A0001A800F036F8194800684B
:1065100020F4006017490860C814FFF7D5FF282051
:106520008DF8000001208DF80300684602F09AF90A
:1065300006208DF8000001208DF80300684602F067
:1065400091F90820019000208DF8080008208DF8AE
:10655000090001208DF80A0001A800F00DF80920BB
:106560008DF8000001208DF80300684602F07AF9EA
:106570000EBD000000040140002123498279002A59
:106580003AD00A46126803689A430B461A600A1DFD
:10659000126803689A430B1D1A60027911440A6855
:1065A00003681A430A60184A0832126803689A435B
:1065B000154B08331A601A1D126803689A43124B70
:1065C0000C331A604279102A0ED11A1F1268036820
:1065D0001A430D4B08331A601A1D126803681A43D8
:1065E000094B0C331A600DE00749427911440A68DF
:1065F00003681A430A6005E0027911440A680368D7
:106600009A430A6070470000000401401CB500BFB7
:1066100001A800230322082100900848006802F026
:1066200095F903F069FA01AB0122102103480068D3
:1066300002F0B6FA642002F06DFEE9E71C000020CB
:106640000149C860704700000020024030B5044690
:1066500004254FF4302000F099F80546042D17D199
:106660000C48006940F002000A490861084644618C
:10667000006940F0400008614FF4302000F086F8D7
:1066800005460448006941F6FD710840014908616A
:10669000284630BD0020024004200B49C96801F0A3
:1066A000010109B101200EE00749C96801F00401A8
:1066B00009B1022007E00449C96801F0100109B1DD
:1066C000032000E0042070470020024003480069D6
:1066D00040F080000149086170470000002002403E
:1066E0000549096821F01001034A11601146096843
:1066F00001431160704700000020024070B504465D
:106700000D460426F00200F041F80646042E11D191
:106710000948006940F00100074908612580F0023E
:1067200000F034F806460448006941F6FE7108405E
:1067300001490861304670BD0020024010B5034693
:106740000C46002105E033F8110024F81100481C24
:1067500081B29142F7DB012010BD0000014600200C
:10676000034A106800F038000843106070470000CA
:1067700000200240024803494860034848607047CF
:106780002301674500200240AB89EFCD00B50246EA
:106790000423FFF781FF034603E0FFF77DFF034675
:1067A000521E012B01D1002AF7D102B90523184648
:1067B00000BD2DE9F04105460E4617460024FFF7BF
:1067C000D9FF3420FFF73CFF2846FFF73FFF00BF0B
:1067D00007E036F8141005EB4400FFF78FFF601C4C
:1067E00084B2BC42F5DBFFF771FF0120BDE8F08108
:1067F000084A106012780A70064A1288120A4A7013
:10680000044A1268120C8A70024A1268120ECA7088
:10681000704700003800002008B501211D2003F05A
:1068200047FC03208DF802004FF40070ADF8000023
:1068300018208DF8030069465E4800F0E1F840F248
:106840000140ADF8000004208DF803006946594866
:1068500000F0D6F84FF48060ADF8000018208DF8F5
:1068600003006946544800F0CBF84FF40060ADF8DF
:10687000000004208DF8030069464F4800F0C0F87E
:106880004FF40060ADF8000028208DF80300694641
:10689000484800F0B5F84FF40070ADF80000102043
:1068A0008DF803006946454800F0AAF80420ADF8C9
:1068B000000010208DF803006946404800F0A0F861
:1068C0004FF48050ADF8000010208DF803006946A9
:1068D000384800F095F84FF48070ADF800001020B3
:1068E0008DF803006946344800F08AF84FF480714F
:1068F000314800F05EF94FF40060ADF80000282048
:106900008DF8030069462D4800F07AF82020ADF894
:10691000000000208DF803006946264800F070F85A
:106920004020ADF8000000208DF8030069462148A2
:1069300000F066F88020ADF8000010208DF803000C
:1069400069461D4800F05CF880211B4800F033F9CF
:106950004FF48050ADF8000010208DF80300694618
:10696000154800F04DF84FF40050ADF8000010202D
:106970008DF803006946104800F042F84FF40051CA
:106980000D4800F016F94FF40070ADF8000010202B
:106990008DF803006946084800F032F84FF4806033
:1069A000ADF8000010208DF803006946034800F0A0
:1069B00027F808BD00080140000C0140001001400C
:1069C00030B500228B071C0F0F2303FA04F20B4B88
:1069D0008C1053F824309343084C8D1044F8253024
:1069E00023468C1053F824308C07240F00FA04F44B
:1069F0002343024C8D1044F8253030BD080001407F
:106A00002DE9F04102460025002600200023002445
:106A1000002791F803C00CF00F0591F803C00CF0AB
:106A2000100CBCF1000F03D091F802C04CEA050530
:106A300091F800C0BCF1000F31D0146800202BE0A9
:106A40004FF0010C0CFA00F3B1F800C00CEA030699
:106A50009E4220D183004FF00F0C0CFA03F7BC4389
:106A600005FA03FC4CEA040491F803C0BCF1280FBA
:106A700006D14FF0010C0CFA00FCC2F814C00AE079
:106A800091F803C0BCF1480F05D14FF0010C0CFA8E
:106A900000FCC2F810C0401C0828D1D31460B1F823
:106AA00000C0BCF1FF0F34DD546800202EE000F17F
:106AB000080C4FF0010808FA0CF3B1F800C00CEA1A
:106AC00003069E4221D183004FF00F0C0CFA03F70E
:106AD000BC4305FA03FC4CEA040491F803C0BCF182
:106AE000280F05D100F1080C08FA0CF8C2F8148040
:106AF00091F803C0BCF1480F07D100F1080C4FF02A
:106B0000010808FA0CF8C2F81080401C0828CED3FF
:106B10005460BDE8F081000010B54FF400710F48DB
:106B200000F047F84FF480510C4800F042F84FF461
:106B300080610B4800F03DF84FF40071084800F008
:106B400038F88021054800F034F81021044800F09E
:106B500030F82021024800F02CF810BD000C014054
:106B60000010014010B54FF400710B4800F023F8FD
:106B70004FF48051084800F01EF84FF48061074838
:106B800000F019F84FF40071044800F014F8802167
:106B9000014800F010F810BD000C01400010014049
:106BA00002460020D3680B400BB1012000E000201A
:106BB00070474161704701617047000010B545485A
:106BC00090F86000112873D2DFE800F00910171E5A
:106BD000252C333A41484F565D646B737A0000228E
:106BE0003DA1434804F054FE022010BD002241A103
:106BF0003F4804F04DFE0220F7E7002242A13C4846
:106C000004F046FE0220F0E7002244A1384804F0D8
:106C10003FFE0220E9E7002245A1354804F038FE96
:106C20000220E2E7002246A1314804F031FE0220B2
:106C3000DBE7002248A12E4804F02AFE0220D4E718
:106C400000224DA12A4804F023FE0220CDE70022B5
:106C500051A1274804F01CFE0220C6E7002255A1DE
:106C6000234804F015FE0120BFE7002255A120486B
:106C700004F00EFE0220B8E7002257A11C4804F0E1
:106C800007FE0220B1E7002259A1194804F000FED6
:106C90000220AAE700225BA1154804F0F9FD0220BA
:106CA000A3E7002252A1124804F0F2FD02209CE763
:106CB0000DE0002259A10E4804F0EAFD032094E7FC
:106CC00000225CA10A4804F0E3FD01208DE70220C8
:106CD0008BE700006C3800200D0A4D6F64756C6501
:106CE00020506F776572204572726F720D0A000036
:106CF000003801400D0A52656164494D45492045FF
:106D000072726F720D0A00000D0A526561642049AB
:106D10004D5349204572726F720D0A000D0A53657A
:106D2000742041504E204572726F720D0A000000AF
:106D30000D0A4E6F205369676E616C0D0A000000EA
:106D40000D0A496E616374697665204E6574776FCC
:106D5000726B0D0A000000000D0A4E6574776F72A9
:106D60006B20526567697374726174696F6E204637
:106D700061696C65640D0A000D0A476574204E65F3
:106D800074776F726B2053746174757320466169F8
:106D90006C65640D0A0000000D0A476574204E659D
:106DA00074776F726B2054696D65204572726F72D3
:106DB0000D0A00000D0A416C6C204E6F726D616C03
:106DC000200D0A000D0A536574204344502045727B
:106DD000726F720D0A0000000D0A5365742053652E
:106DE0006E642053686F77204572726F720D0A00CF
:106DF0000D0A53656E642044617461204572726FA0
:106E0000720D0A000D0A526563656976652044615A
:106E10007461204572726F720D0A00000D0A52658E
:106E200073656E642044617461204572726F720DE7
:106E30000A0000000D0A53656E64204461746120ED
:106E40004F6B0D0A0000000010B503460020002221
:106E500004E053F822402044541CA2B28A42F8DBDA
:106E6000B0FBF1F010BD000010B5044624B90421B8
:106E70000448FFF79EFE03E004210248FFF79BFE53
:106E800010BD00000010014030B595B03C2106A8AF
:106E9000FCF7F1FD00200490059001900290039012
:106EA000002519E014E0642005F010FB6946672016
:106EB00000F081F99DF8000000F0080040B105EBFA
:106EC000450006AA02EB4001682000F092F900E0BC
:106ED000E9E700BF681CC5B20A2DE3DB002515E019
:106EE00000240FE005EB450006A901EB400030F956
:106EF000140001A951F82410084401A941F8240004
:106F0000601CC4B2032CEDDB681CC5B20A2DE7DBA4
:106F100000240BE001A850F824000A2190FBF1F0B6
:106F200000B204A921F81400601CC4B2032CF1DBE8
:106F3000002407E004A830F81400094921F81400DF
:106F4000601CC4B2032CF5DB0548B0F90430B0F97D
:106F50000220B0F9001003A0FCF7E0F915B030BD35
:106F6000500000204D6167204F666673657420767F
:106F7000616C75653A202564203A202564203A200A
:106F800025640D0A000000002DE9F04F8DB0064683
:106F9000894600200C9070480078032814DA6E4867
:106FA000007800EB40006D4A02EB4001682000F0E1
:106FB00020F91121602000F048F900200C9066486B
:106FC0000078401C644908706348007803287CD12D
:106FD0001321602000F039F9002515E000240FE0AE
:106FE00005EB45005D4901EB400030F914005C49B8
:106FF00051F8241008445A4941F82400601CC4B2D6
:10700000032CEDDB681CC5B2032DE7DB01200C90DF
:10701000002051490870002413E0514850F8240022
:10702000032190FBF1F04F4931F91410401A4C49FB
:1070300041F82400084650F8240049F82400601C58
:10704000C4B2032CE9DB4649886805F0CAFE07464E
:1070500088464349886805F0C4FE434A434BCDE95E
:10706000040105F025FF82463A46434605F020FF1D
:10707000CDE908013A49486805F0B3FE82468B46DF
:107080003749486805F0ADFE07464FF03332384BBC
:1070900005F00EFF52465B46CDE9000105F008FF02
:1070A000CDE904012E49086805F09BFE82468B4617
:1070B0002B49086805F095FE07464FF033322C4BFC
:1070C00005F0F6FE52465B4600E040E0CDE90001E7
:1070D00005F0EEFECDE90201DDE9042305F0D4FB65
:1070E000CDE90601DDE9082305F0CEFBCDE90A0173
:1070F00005F01AFE1F49086008460068009018480D
:107100008368426801681CA0FCF708F91948006808
:107110002249096888420BDD012030701F48006851
:1071200014490968B1EB400F04DD02200C9001E026
:10713000002030700F48006840F6C411884206DD18
:107140000C480068B0F5C85F01DA03200C900C9879
:107150000DB0BDE8F08F0000560000205838002028
:107160004C38002050000020CDCCCCCCCCCCFC3F07
:107170003333E33F4C0000204E6F77204D61672092
:107180003A2025303464203A2025303464203A20D7
:107190002530346420253036640D0A004400002078
:1071A00010B5044621464F2000F005F808B900202C
:1071B00010BD0120FCE770B505460C4600F0DAF979
:1071C0003C2000F0A9F900F01DFA284600F0A4F9CF
:1071D00000F018FA00F0CEF93D2000F09DF900F023
:1071E00011FA002000F062F9207000F0E7F90120A8
:1071F00070BD2DE9F04107460D462C4600F0BAF966
:107200003C2000F089F900F0FDF9384600F084F9DF
:1072100000F0F8F900F0AEF93D2000F07DF900F043
:10722000F1F9002606E0012000F040F904F8010B16
:10723000701CC6B2052EF6DB002000F037F904F80A
:10724000010B00F0BBF9BDE8F08170B505460C46B6
:1072500000F090F93C2000F05FF900F0D3F918B18C
:1072600000F0ACF9012070BD284600F055F900F09F
:10727000C9F9204600F050F900F0C4F918B100F047
:107280009DF90120EFE700F099F90020EBE77CB5CC
:1072900040F6B83005F01AF901A8FFF781FF102178
:1072A0006020FFF7D2FF01216120FFF7CEFF01210F
:1072B0006220FFF7CAFF0F24002521466520FFF753
:1072C000C4FF29466620FFF7C0FFFFF7DDFD11214F
:1072D0006020FFF7BAFF00216320FFF7B6FF694681
:1072E0006420FFF768FF01207CBD00001FB501216D
:1072F0002C2002F0DDFE4FF6FF70ADF80C000220EE
:107300008DF80E0000208DF80F0003A92848FFF724
:1073100077FB03A92748FFF773FB03A92648FFF76C
:107320006FFB03A92548FFF76BFB0820ADF80C00A5
:1073300004208DF80F0003A91F48FFF761FB082008
:10734000019000208DF8080008208DF80900012028
:107350008DF80A0001A8FFF70FF909208DF8000049
:1073600001208DF80300684601F07CFA00212C20F2
:1073700002F09EFE0021062002F07AFE00214FF46A
:10738000007002F095FE0021012002F091FE0C48F1
:1073900004F064F90B4804F061F90B48FEF776FC41
:1073A0000A4803F00DFE0A4803F00AFE1FBD000064
:1073B00000080140000C0140001001400014014091
:1073C0000038014000480040002401400004004013
:1073D0000008004010B500200E4908600E48006803
:1073E00020F070400C4908600846006840F04050AA
:1073F000086000200949C1F89C0100F011F8012043
:107400000449086000F00CF800200449C1F8980114
:1074100010BD0000980122420010014000002242ED
:1074200010B5022005F088F810BD000008B5012154
:10743000102002F03DFEC020ADF8000014208DF8B1
:10744000030003208DF8020069460448FFF7D8FACC
:10745000C0210248FFF7AFFB08BD0000001001404B
:1074600010B500200E4908600E48006820F07040FA
:107470000C4908600846006840F040500860012050
:107480000949C1F89C01FFF7CBFF012004490860BE
:10749000FFF7C6FF00200449C1F8980110BD0000A5
:1074A00098012242001001400000224270B50546BA
:1074B00000241648006820F070401449086008460F
:1074C000006840F000400860002614E000201049E9
:1074D0000860FFF7A5FF01200E49C1F8980160067A
:1074E000040E0B487C38006808B1601CC4B2FFF77A
:1074F00097FF701CC6B2082EE8DB15B9FFF7B0FF86
:1075000001E0FFF767FF204670BD0000001001405A
:10751000980122420000224270B5044612480068D9
:1075200020F07040104908600846006840F0405064
:10753000086000200D490860002512E0E0090B49B1
:10754000091D08606006040E01200949C1F8980170
:10755000FFF766FF002005490860FFF761FF681C20
:10756000C5B2082DEADB70BD00100140980122422F
:107570000000224210B50E48006820F070400C490F
:1075800008600846006840F0405008600120094942
:1075900008600949C1F89801FFF742FF002005493A
:1075A0000860FFF73DFF00200349C1F8980110BDB6
:1075B000001001409C0122420000224210B50E48FA
:1075C000006820F070400C4908600846006840F0F0
:1075D000405008600020094908600949C1F89C0131
:1075E000FFF71EFF0120054908600549C1F89C010D
:1075F000FFF716FF10BD0000001001409801224265
:107600000000224210B500241448006820F07040A9
:10761000124908600846006840F0004008600120F8
:107620000F490860FFF7FCFE01200E49C1F89801E0
:10763000FFF7F6FE07E0601CC4B2FA2C03DDFFF78B
:10764000BDFF012010BD0648803800680028F2D137
:107650000349091F086000BFF4E700000010014063
:107660009C0122420000224208B500BF694600206A
:1076700001F03AF912490860FBF7F4FD114908607E
:107680000323114A0021114801F010FC0423104A81
:107690000021104801F00AFC02230F4A00210F4884
:1076A00001F004FC05230E4A00210E4801F0FEFB08
:1076B0000A2001F0D7FD03480068FBF7D7FDD5E7A6
:1076C0001C00002000000020BC100020E5B80008CD
:1076D000BC1800200D660008BC200020E5630008EF
:1076E000BC28002075AB00082DE9F04F9DB0804606
:1076F000894692469B46502103A8FCF7BCF9C82155
:10770000CE48FCF7B8F9C821CC48C830FCF7B3F92B
:107710000120CB49C1F8040B0221C948C0F8081B5D
:107720000321C0F80C1B0421C0F8101BB8F800306E
:1077300000F62822C3A11046FBF7FCFD002018909C
:1077400019901A90C14800783030C0B28DF86000AE
:10775000BF4800783030C0B28DF86100BD48007875
:107760003030C0B28DF8620026980078B449B1F884
:10777000021B884203DC31208DF8630002E03020D8
:107780008DF8630018ABAD4AC832B3A11046FBF7C1
:10779000D1FD27980388A94AC832AAA11046FBF751
:1077A000C9FD00201790189019901A90AC49486EA6
:1077B00017A9FFF71DF8002511E017A8425DA9A140
:1077C0001BA8FBF7B7FD9DF86C0018AA02F815007E
:1077D0009DF86D106800401C1154681CC5B2042D42
:1077E000EBDB18AB954AC8329BA11046FBF7A2FD14
:1077F00000201790189019901A909949886E17A92F
:10780000FEF7F6FF002511E017A8425D95A11BA821
:10781000FBF790FD9DF86C0018AA02F815009DF882
:107820006D106800401C1154681CC5B2042DEBDBC0
:1078300018AB824AC83288A11046FBF77BFD884806
:10784000B0F862307D4AC8327EA11046FBF772FD67
:1078500083487A4AC83285A1C36E1046FBF76AFD99
:10786000BBF90000BAF90010CDE90010B9F90030F9
:10787000724AC8327FA11046FBF75CFD7048B0F831
:10788000FC3A00F628226FA11046FBF753FD6C4826
:10789000B0F8FC0A401C6A49A1F8FC0A01F628204D
:1078A000FCF731F8C4B2E11704EB5171C910A4EB35
:1078B000C10139B92046E11704EB5171C1F3C70189
:1078C0001C910AE02046E11704EB5171C1F3C70196
:1078D0001C911C98401CC0B21C900020189019905C
:1078E0001A902746E01704EB5070C010A4EBC000BC
:1078F000C0F10802634918A8FCF724F818AB4F4AF6
:10790000C83255A11046FBF715FD00224B49C8317E
:107910005D4803F0BDFF5DA0FBF700FD474EC83694
:10792000002538E0002432E0307839280DDC30784A
:107930003038A100C1F11C01884003A951F825107D
:10794000084403A941F825001EE03278A2F1310075
:10795000C21700EB12721211A0EB02133278A2F1DF
:107960003101CA1701EB1272121102EB820203EB12
:107970004202A300C3F11C039A4003AB53F8253025
:107980001A4403AB43F82520761C601CC4B2082CB3
:10799000CADB681CC5B22948C830FBF7B4FFB5EB99
:1079A000D00FBFD32548C830FBF7ADFFC708384A12
:1079B000394603A804F06AF92148B0F8000B002802
:1079C00004DB01201E4981F8F10A03E002201C4972
:1079D00081F8F10A1948C830FBF795FF47081848A5
:1079E000009790F8F13A2BA22CA11448FBF7A2FCC7
:1079F000002409E003A850F82430104A1BA11046C7
:107A0000FBF798FC601CC4B20C48C830FBF77BFF46
:107A1000B4EBD00FEED324A3084A0FA11046FBF716
:107A200089FC00220549184803F032FF17A0FBF734
:107A300075FC01201DB0BDE8F08F00002032002051
:107A4000C02800202573253034580000480000204D
:107A50000F0000200E000020257325730000000099
:107A60006C38002025303258000000002573253086
:107A700038580000257325303458253034582530C7
:107A80003458000076D90008003801400D0A000083
:107A9000C4330020383030303032000025732530B8
:107AA00032582530325800003030383100000000A4
:107AB00010B50024124803F055FD002211A114480E
:107AC00003F0E6FE00BF13A003F03EFD28B112A0B4
:107AD00003F03AFD08B1012010BD12A003F034FDFF
:107AE00018B912A003F030FD08B10220F4E7601CC1
:107AF000C4B2642004F0EAFCC82CE4DB0020EBE70D
:107B00009A3B002041542B43455245473F0D0A0004
:107B1000004800404F4B00002B43455245473A3048
:107B20002C3100004552524F520000002B43455269
:107B300045473A302C32000070B50446002532210A
:107B40001248FBF798FF224611A11048FBF7F2FB01
:107B5000164803F007FD00220C49154803F098FE73
:107B600000BF14A003F0F0FC08B1012070BD12A00A
:107B700003F0EAFC08B10120F8E7681CC5B26420F4
:107B800004F0A4FC642DECDB0020EFE7DC380020DF
:107B900041542B434744434F4E543D312C224950CE
:107BA000222C222573220D0A000000009A3B00209F
:107BB000004800404F4B00004552524F5200000019
:107BC00070B500241E4803F0CDFC00221DA1204802
:107BD00003F05EFE00BF1FA003F0B6FC08B31EA0BA
:107BE00003F0B2FCE8B11CA11548FBF756FE0546B0
:107BF000AD1D1B4A1BA12846FBF704FD00221BA15B
:107C00001C4803F045FE002215491A4803F040FEC7
:107C1000002219A1174803F03BFE00F037FD0120B8
:107C200070BD16A003F090FC08B10220F8E7601CBC
:107C3000C4B2322004F04AFC1E2CCCDB0020EFE75B
:107C40009A3B002041542B4347534E3D310D0A00CF
:107C5000004800404F4B00002B4347534E3A000072
:107C60006C380020255B5E0D0A5D0000494D4549DA
:107C70003A200000003801400D0A00004552524FE2
:107C80005200000070B500241D4803F06BFC322147
:107C90001C48FBF7F0FE00221BA11E4803F0F8FD74
:107CA00000BF1DA003F050FCD8B11CA11448FBF785
:107CB000F4FD0546AD1C134A19A12846FBF7A2FCAA
:107CC000002219A11A4803F0E3FD00220D491848CB
:107CD00003F0DEFD002211A1154803F0D9FD0120BB
:107CE00070BD14A003F030FC08B10220F8E7601C5E
:107CF000C4B2642004F0EAFBC82CD2DB0020EFE71A
:107D00009A3B0020DC38002041542B43494D490D5B
:107D10000A000000004800404F4B00000D0A000020
:107D2000255B5E0D0A5D0000494D53493A20000075
:107D3000003801404552524F5200000070B50026F5
:107D400032211F48FBF797FE1E4803F00BFC002270
:107D50001DA1204803F09CFD00BF1FA003F0F4FB11
:107D6000F8B11EA11748FBF798FD0546144829688D
:107D700001606968416029890181024619A128468C
:107D8000FBF740FC0E48FBF771FDC4B2632C00D03A
:107D90000CB9032070BD214616A0FBF7BFFA0120E5
:107DA000F8E717A003F0D0FB08B10220F2E7701C3F
:107DB000C6B2C82004F08AFB962ECEDB0020E9E78D
:107DC000DC3800209A3B002041542B4353510D0ACC
:107DD00000000000004800404F4B00002B4353516F
:107DE0003A000000252A5B5E3A5D3A255B5E2C5D19
:107DF000000000004353513A2025640D0A000000A2
:107E00004552524F520000002DE9F04F8DB083468D
:107E10000020019032216148FBF72DFE604803F0FD
:107E2000A1FB00225FA1624803F032FD00BF61A008
:107E300003F08AFB00287DD05FA003F085FB0028BB
:107E400079D05DA15648FBF728FD0446A41D207893
:107E5000303800EB80004FF4FA6101EB4005601C04
:107E6000044600783038054440F2F670854203DA63
:107E700040F2E270854203DA02200DB0BDE8F08FD7
:107E8000A41C2078303800EB80004600601C0446BB
:107E90000078303806440C2E01DC012E01DA022075
:107EA000EBE7A41C2078303800EB80004700601C12
:107EB00004460078303807441F2F01DC012F01DA17
:107EC0000220DAE7A41C2078303800EB80004FEA6B
:107ED0004008601C0446007830388044B8F1170F21
:107EE00002DCB8F1000F01DA0220C6E7A41C2078FA
:107EF000303800EB80004FEA4009601C04460078EF
:107F000030388144B9F13B0F02DCB9F1000F01DADE
:107F10000220B2E7A41C2078303800EB80004FEA42
:107F2000400A601C0446007830388244BAF13B0FA6
:107F300005DC01E01FE01CE0BAF1000F01DA0220CD
:107F40009BE7A5F26C700790701E06900597CDF820
:107F50001080CDF80C90CDF808A002A8FBF7D1FD59
:107F6000CBF8000016A0DBF80010FBF7D7F90120D2
:107F700083E7022081E716A003F0E6FA08B10220A9
:107F80007BE70198401CC0B20190642004F09EFA87
:107F900001986428FFF64BAF00206EE7DC38002024
:107FA0009A3B002041542B43434C4B3F0D0A0000A9
:107FB000004800404F4B00002B43434C4B3A00001D
:107FC00054696D657354616D702025640D0A00005D
:107FD0004552524F520000002DE9F05F05460E4613
:107FE00091469A464FF0000B32214F48FBF743FD74
:107FF0004E4803F0B7FA00224DA1514803F048FC67
:1080000000BF50A003F0A0FA002879D04EA1474845
:10801000FBF743FC04464448216801606168416005
:108020002189018102464AA12046FBF7EBFA3E482E
:10803000FBF71CFC2870297849A0FBF76FF94BA1CE
:108040003A48FBF72AFC044637482168016061681A
:1080500041602189018102463DA12046FBF7D2FA09
:10806000314803F0FEFD074604F0DCFBCAF80000CF
:10807000DAF8000005F03AF907463A460B463DA00B
:10808000FBF74CF93EA12948FBF707FC04462648BC
:1080900021680160616841602189018102462CA14B
:1080A0002046FBF7AFFA2048FBF7E0FB3080318831
:1080B00035A0FBF733F937A11C48FBF7EEFB04466C
:1080C000142221461848FBF73DFC174A20A1204600
:1080D000FBF798FA144803F0C4FD074604F0A2FB2E
:1080E000C9F80000D9F8000005F000F907463A4643
:1080F0000B462CA0FBF712F90120BDE8F09FFFE72B
:108100002CA003F021FA08B10220F6E70BF10100E0
:1081100000F0FF0B322004F0D9F9BBF1640FFFF639
:1081200070AF0020E9E70000DC3800209A3B002017
:1081300041542B4E554553544154530D0A000000F1
:10814000004800404F4B000045434C3A00000000FF
:10815000252A5B5E3A5D3A255B5E0D0A5D000000F4
:1081600045434C3A2025640D0A000000534E523A14
:1081700000000000534E523A20252E32660D0A00B0
:108180005043493A000000005043493A2025640D0D
:108190000A0000005369676E616C20706F7765722A
:1081A0003A000000525352503A20252E32660D0AF2
:1081B000000000004552524F5200000010B500244C
:1081C000164803F0CFF9002215A1184803F060FB10
:1081D00000BF17A003F0B8F988B116A003F0B4F9F6
:1081E00028B14FF4FA710D4802F010FC05E013A01D
:1081F00003F0AAF908B1102010BD0020FCE712A07E
:1082000003F0A2F908B10020F6E7601CC4B23220E6
:1082100004F05CF9642CDCDB0020EDE79A3B0020E5
:1082200041542B4E4D47520D0A00000000480040BB
:108230004F4B0000393939390000000041414141BC
:1082400030303030000000004552524F52000000E4
:10825000FEB505460026194803F084F9002218A14E
:108260001A4803F015FB00BF19A003F06DF9B0B177
:1082700018A11248FBF711FB0446206800906068C3
:1082800001902089ADF808006A4615A12046FBF749
:10829000B9F96846FBF7EAFA28700120FEBD14A080
:1082A00003F052F908B10220F8E7701CC6B2322080
:1082B00004F00CF9642ED7DB0020EFE79A3B002096
:1082C00041542B4E514D47520D0A000000480040CA
:1082D0004F4B0000425546464552454400000000C1
:1082E000252A5B5E3D5D3D255B5E2C5D0000000048
:1082F0004552524F5200000070B50446002514212B
:108300001248FBF7B8FB124803F02CF9224611A1E2
:108310000E48FBF70FF800220C49124803F0B8FA98
:1083200000BF11A003F010F908B1012070BD0FA02B
:1083300003F00AF908B10220F8E7681CC5B2322040
:1083400004F0C4F8C82DECDB0020EFE7DC38002097
:108350009A3B002041542B4E534D493D25640D0A54
:1083600000000000004800404F4B00004552524FB3
:108370005200000010B504467CB14FF480610B48F8
:10838000FEF70EFC012810D04FF480610748FEF77D
:1083900012FC0A2004F09AF807E04FF480610348C9
:1083A000FEF707FC0A2004F091F810BD0010014010
:1083B0001CB500F037F9C8211048FBF75CFB6422BC
:1083C0000E490F48FEF7BAF90C4800784E2810D134
:1083D0000C48811FA0F11A03A0F12E02CDE9001074
:1083E00009A10648FBF70EF9002000F057F801201C
:1083F0001CBD00F04BF90220FAE70000DC38002039
:1084000000E401089A3800204E3A255B5E3A5D3A56
:10841000255B5E3A5D3A255B5E3A5D3A255B5E3AE6
:108420005D3A000010B50024114803F09BF80022CB
:1084300010A1134803F02CFA00BF12A003F084F837
:1084400038B111A003F080F808B1012010BD03205D
:10845000FCE710A003F078F808B10220F6E7601CF2
:10846000C4B2C82004F032F8962CE6DB0020EDE719
:108470009A3B002041542B43474154543F0D0A007E
:10848000004800404F4B00002B43474154543A31C1
:10849000000000004552524F520000001CB5044637
:1084A000C8210B48FBF7E7FA0A48811FA0F11A031D
:1084B000A0F12E02CDE9001007A10548FAF73AFF16
:1084C00024B900220249114803F0E2F91CBD000062
:1084D000DC3800209A3800204E425F494D45493A29
:1084E0002025730D0A4E425F49503A2025730D0A2C
:1084F0004E425F504F52543A2025730D0A4E425F50
:1085000041504E3A2025730D0A000000003801400A
:1085100070B504460D460026164803F023F8C8211E
:108520001548FBF7A8FA23462A4614A11248FAF781
:1085300001FF00221049154803F0AAF900BF14A05A
:1085400003F002F828B113A002F0FEFF08B10120E9
:1085500070BD13A002F0F8FF08B10220F8E7701C0C
:1085600086B2642003F0B2FFB6F5167FE7DB002089
:10857000EEE700009A3B0020DC38002041542B4EEF
:108580004D47533D25642C25730D0A0000480040DB
:108590004F4B00002B4E534D493A53454E5400006B
:1085A0004552524F5200000070B504460025134852
:1085B00002F0D8FF32211248FBF75DFA224611A1E2
:1085C0000F48FAF7B7FE00220D49124803F060F990
:1085D00000BF11A002F0B8FF08B1012070BD0FA0CC
:1085E00002F0B2FF08B10220F8E7681C85B26420EF
:1085F00003F06CFF642DECDB0020EFE79A3B0020DA
:10860000DC38002041542B4E4344503D25730D0A65
:1086100000000000004800404F4B00004552524F00
:108620005200000010B50CA10F48FBF748F90FA14C
:108630000D482E30FBF743F90EA10B482830FBF70D
:108640003EF90EA108481430FBF739F9002006491D
:1086500081F8600010BD00003132333435363738D0
:1086600039303132333435006C38002043544E42B7
:108670000000000035363833000000003131372E5D
:1086800036302E3135372E31333700001CB5C82136
:108690000C48FBF7F0F90C48811FA0F11A03A0F178
:1086A0002E02CDE9001009A10648FAF743FE05485D
:1086B000FBF729F984B2224602490848FEF779F807
:1086C00001201CBDDC3800209A3800204E3A25736A
:1086D0003A25733A25733A25733A000000E40108FD
:1086E0001CB5044601A800F015F86B46074A084877
:1086F0000199006800F092F8234640F66E71034835
:10870000009A00F02DF801201CBD0000000020415F
:10871000400000202DE9FC5F82460F48006804F00D
:10872000E5FD04460D460120FDF724FE834604F0D6
:108730006FFB06460022094B04F062F922462B46E5
:10874000CDE9000104F0B4FB804604F06BF8CAF8F0
:1087500000000120BDE8FC9F4000002000FEAF406B
:108760002DE9F04F87B004460D461646994621463E
:10877000304604F049FE834604F0B8FD0A22CDE9F4
:10878000040103F0B1FF074604F04CF88246284686
:1087900004F03EFB4FF066321D4BCDE9000104F0C2
:1087A0002FF9CDE90401504604F0A0FDCDE9020106
:1087B000DDE9042304F068F8074604F033F8824644
:1087C000284604F003FF5146039004F01DFE834643
:1087D00004F08CFD07464FF066320E4B04F09CFC13
:1087E000CDE9040104F01EF88246504604F07EFDF7
:1087F0000022094BCDE9040104F08EFC074604F089
:1088000011F8C9F80000012007B0BDE8F08F0000A2
:1088100066A2724066127140000008402DE9F047E0
:1088200080460C4615461E462946204604F0E2FEC8
:1088300007462146404604F0A9FF8146494638468E
:1088400004F0E2FD074637600120BDE8F087000034
:1088500010B503494FF0006000F03CF810BD000077
:108860000030000870B5002100230F22C47804B343
:10887000154C246804F4E064C4F5E064210AC1F1F5
:108880000403CA40447804FA03F184781440214375
:1088900009010E4C0678A155047804F01F05012447
:1088A000AC4005786D11AD0005F1E025C5F800413B
:1088B00009E0047804F01F050124AC40044D06785B
:1088C000761145F8264070BD0CED00E000E400E0B4
:1088D00080E100E0024A0A400243024B1A607047FE
:1088E00080FFFF1F08ED00E02DE9F04106460D4630
:1088F00000271348007820B1102028700020BDE820
:10890000F081FAF7AFFC07460E48046884B10068AE
:1089100040680C49086005202070268100206060B6
:1089200009A0E0603846FAF7A1FC0020287004E0B6
:108930003846FAF79BFC722028702046DFE70000DB
:1089400091000020800000203F0000002DE9F04F42
:1089500089B005460F4691469A46129E0020029025
:108960008C48007828B102203070002009B0BDE8A2
:10897000F08F8948007818B10D2030700020F5E79D
:108980002878052803D0012030700020EEE709F098
:10899000800BBBF1000F04D009F07F094FF00108F4
:1089A00001E04FF00008FAF75DFC0290B9F1000F0A
:1089B0004AD0B9F1010F68D0B9F1020F03D0B9F173
:1089C000030F76D120E0288900EA0704BC420FD1CA
:1089D000B8F1010F02D12889A04328816F480068AF
:1089E00004850298FAF742FC002030702046BDE76B
:1089F0004B463A4604A92846CDF800A000F040FDB9
:108A00000298FAF733FC69E0288900EA07047CB190
:108A1000B8F1010F02D12889A04328815F4800687E
:108A200004850298FAF722FC0020307020469DE76A
:108A30004B463A4604A92846CDF800A000F020FD98
:108A40000298FAF713FC49E0288927EA0004BC429F
:108A50000FD1B8F1010F02D12889204328814F4856
:108A6000006804850298FAF701FC00203070204667
:108A70007CE74B463A4604A92846CDF800A000F012
:108A8000FFFC0298FAF7F2FB28E0288927EA0004A5
:108A900084B1B8F1010F02D12889204328813F48D1
:108AA000006804850298FAF7E1FB00203070204648
:108AB0005CE70BE04B463A4604A92846CDF800A0F7
:108AC00000F0DEFC0298FAF7D1FB07E00298FAF713
:108AD000CDFB00246F203070204647E700BF00F038
